{
  "_format": "hh-sol-artifact-1",
  "contractName": "Web3RSVP",
  "sourceName": "contracts/Web3RSVP.sol",
  "abi": [
    {
      "anonymous": false,
      "inputs": [
        {
          "indexed": false,
          "internalType": "uint256",
          "name": "eventID",
          "type": "uint256"
        },
        {
          "indexed": false,
          "internalType": "address",
          "name": "attendeeAddress",
          "type": "address"
        }
      ],
      "name": "ConfirmedAttendee",
      "type": "event"
    },
    {
      "anonymous": false,
      "inputs": [
        {
          "indexed": false,
          "internalType": "uint256",
          "name": "eventID",
          "type": "uint256"
        }
      ],
      "name": "DepositsPaidOut",
      "type": "event"
    },
    {
      "anonymous": false,
      "inputs": [
        {
          "indexed": false,
          "internalType": "uint256",
          "name": "eventID",
          "type": "uint256"
        },
        {
          "indexed": false,
          "internalType": "address",
          "name": "creatorAddress",
          "type": "address"
        },
        {
          "indexed": false,
          "internalType": "uint256",
          "name": "eventStartTime",
          "type": "uint256"
        },
        {
          "indexed": false,
          "internalType": "uint256",
          "name": "maxCapacity",
          "type": "uint256"
        },
        {
          "indexed": false,
          "internalType": "uint256",
          "name": "deposit",
          "type": "uint256"
        },
        {
          "indexed": false,
          "internalType": "string",
          "name": "eventDataCID",
          "type": "string"
        }
      ],
      "name": "NewEventCreated",
      "type": "event"
    },
    {
      "anonymous": false,
      "inputs": [
        {
          "indexed": false,
          "internalType": "uint256",
          "name": "eventID",
          "type": "uint256"
        },
        {
          "indexed": false,
          "internalType": "address",
          "name": "attendeeAddress",
          "type": "address"
        }
      ],
      "name": "NewRSVP",
      "type": "event"
    },
    {
      "inputs": [
        {
          "internalType": "uint256",
          "name": "eventId",
          "type": "uint256"
        }
      ],
      "name": "claimedRSVPs",
      "outputs": [
        {
          "internalType": "address[]",
          "name": "",
          "type": "address[]"
        }
      ],
      "stateMutability": "view",
      "type": "function"
    },
    {
      "inputs": [
        {
          "internalType": "uint256",
          "name": "eventId",
          "type": "uint256"
        }
      ],
      "name": "confirmAllAttendees",
      "outputs": [],
      "stateMutability": "nonpayable",
      "type": "function"
    },
    {
      "inputs": [
        {
          "internalType": "uint256",
          "name": "eventId",
          "type": "uint256"
        },
        {
          "internalType": "address",
          "name": "attendee",
          "type": "address"
        }
      ],
      "name": "confirmAttendee",
      "outputs": [],
      "stateMutability": "nonpayable",
      "type": "function"
    },
    {
      "inputs": [
        {
          "internalType": "uint256",
          "name": "eventId",
          "type": "uint256"
        }
      ],
      "name": "confirmedRSVPs",
      "outputs": [
        {
          "internalType": "address[]",
          "name": "",
          "type": "address[]"
        }
      ],
      "stateMutability": "view",
      "type": "function"
    },
    {
      "inputs": [
        {
          "internalType": "uint256",
          "name": "startTime",
          "type": "uint256"
        },
        {
          "internalType": "uint256",
          "name": "deposit",
          "type": "uint256"
        },
        {
          "internalType": "uint256",
          "name": "maxCapacity",
          "type": "uint256"
        },
        {
          "internalType": "string",
          "name": "eventDataCID",
          "type": "string"
        }
      ],
      "name": "createEvent",
      "outputs": [],
      "stateMutability": "nonpayable",
      "type": "function"
    },
    {
      "inputs": [
        {
          "internalType": "uint256",
          "name": "eventId",
          "type": "uint256"
        }
      ],
      "name": "createRSVP",
      "outputs": [],
      "stateMutability": "payable",
      "type": "function"
    },
    {
      "inputs": [
        {
          "internalType": "uint256",
          "name": "",
          "type": "uint256"
        }
      ],
      "name": "idToEvent",
      "outputs": [
        {
          "internalType": "uint256",
          "name": "eventId",
          "type": "uint256"
        },
        {
          "internalType": "string",
          "name": "eventDataCID",
          "type": "string"
        },
        {
          "internalType": "address",
          "name": "creator",
          "type": "address"
        },
        {
          "internalType": "uint256",
          "name": "startTime",
          "type": "uint256"
        },
        {
          "internalType": "uint256",
          "name": "deposit",
          "type": "uint256"
        },
        {
          "internalType": "uint256",
          "name": "maxCapacity",
          "type": "uint256"
        },
        {
          "internalType": "bool",
          "name": "paidOut",
          "type": "bool"
        }
      ],
      "stateMutability": "view",
      "type": "function"
    },
    {
      "inputs": [
        {
          "internalType": "uint256",
          "name": "eventId",
          "type": "uint256"
        }
      ],
      "name": "withdrawUnclaimedDeposits",
      "outputs": [],
      "stateMutability": "nonpayable",
      "type": "function"
    }
  ],
  "bytecode": "0x6080604052600160005534801561001557600080fd5b50611e43806100256000396000f3fe60806040526004361061007b5760003560e01c8063754d0e511161004e578063754d0e511461014c578063cc002cee14610175578063d46bae4b14610191578063df8ef00e146101d45761007b565b8063127d17ab146100805780632573df68146100a957806351161c09146100e65780636acb5dd314610123575b600080fd5b34801561008c57600080fd5b506100a760048036038101906100a29190611273565b6101fd565b005b3480156100b557600080fd5b506100d060048036038101906100cb9190611273565b610486565b6040516100dd9190611390565b60405180910390f35b3480156100f257600080fd5b5061010d60048036038101906101089190611273565b61052a565b60405161011a9190611390565b60405180910390f35b34801561012f57600080fd5b5061014a600480360381019061014591906113de565b6105ce565b005b34801561015857600080fd5b50610173600480360381019061016e9190611483565b610730565b005b61018f600480360381019061018a9190611273565b6109c4565b005b34801561019d57600080fd5b506101b860048036038101906101b39190611273565b610cc6565b6040516101cb97969594939291906115dd565b60405180910390f35b3480156101e057600080fd5b506101fb60048036038101906101f69190611273565b610dbd565b005b60006001600083815260200190815260200160002090503373ffffffffffffffffffffffffffffffffffffffff168160020160009054906101000a900473ffffffffffffffffffffffffffffffffffffffff1673ffffffffffffffffffffffffffffffffffffffff16146102a6576040517f08c379a000000000000000000000000000000000000000000000000000000000815260040161029d9061169f565b60405180910390fd5b8060080160009054906101000a900460ff16156102f8576040517f08c379a00000000000000000000000000000000000000000000000000000000081526004016102ef9061170b565b60405180910390fd5b62093a80816003015461030b919061175a565b42101561034d576040517f08c379a0000000000000000000000000000000000000000000000000000000008152600401610344906117fc565b60405180910390fd5b600081600701805490508260060180549050610369919061181c565b9050600082600401548261037d9190611850565b905060003373ffffffffffffffffffffffffffffffffffffffff16826040516103a5906118db565b60006040518083038185875af1925050503d80600081146103e2576040519150601f19603f3d011682016040523d82523d6000602084013e6103e7565b606091505b505090508061042b576040517f08c379a00000000000000000000000000000000000000000000000000000000081526004016104229061193c565b60405180910390fd5b60018460080160006101000a81548160ff0219169083151502179055507f0308e7ef5ff7ae64ed45c37a04775b24be0bfbc4cb5f5c3e6b0aa505d006eafc85604051610477919061195c565b60405180910390a15050505050565b60606001600083815260200190815260200160002060070180548060200260200160405190810160405280929190818152602001828054801561051e57602002820191906000526020600020905b8160009054906101000a900473ffffffffffffffffffffffffffffffffffffffff1673ffffffffffffffffffffffffffffffffffffffff16815260200190600101908083116104d4575b50505050509050919050565b6060600160008381526020019081526020016000206006018054806020026020016040519081016040528092919081815260200182805480156105c257602002820191906000526020600020905b8160009054906101000a900473ffffffffffffffffffffffffffffffffffffffff1673ffffffffffffffffffffffffffffffffffffffff1681526020019060010190808311610578575b50505050509050919050565b60006001600084815260200190815260200160002090503373ffffffffffffffffffffffffffffffffffffffff168160020160009054906101000a900473ffffffffffffffffffffffffffffffffffffffff1673ffffffffffffffffffffffffffffffffffffffff1614610677576040517f08c379a000000000000000000000000000000000000000000000000000000000815260040161066e9061169f565b60405180910390fd5b60005b81600601805490508160ff16101561072a578273ffffffffffffffffffffffffffffffffffffffff16826006018260ff16815481106106bc576106bb611977565b5b9060005260206000200160009054906101000a900473ffffffffffffffffffffffffffffffffffffffff1673ffffffffffffffffffffffffffffffffffffffff161415610717576107168483600701858560040154610ee9565b5b8080610722906119b3565b91505061067a565b50505050565b604051806101200160405280600054815260200183838080601f016020809104026020016040519081016040528093929190818152602001838380828437600081840152601f19601f8201169050808301925050505050505081526020013373ffffffffffffffffffffffffffffffffffffffff168152602001868152602001858152602001848152602001600067ffffffffffffffff8111156107d7576107d66119dd565b5b6040519080825280602002602001820160405280156108055781602001602082028036833780820191505090505b508152602001600067ffffffffffffffff811115610826576108256119dd565b5b6040519080825280602002602001820160405280156108545781602001602082028036833780820191505090505b50815260200160001515815250600160008054815260200190815260200160002060008201518160000155602082015181600101908051906020019061089b929190611106565b5060408201518160020160006101000a81548173ffffffffffffffffffffffffffffffffffffffff021916908373ffffffffffffffffffffffffffffffffffffffff160217905550606082015181600301556080820151816004015560a0820151816005015560c082015181600601908051906020019061091d92919061118c565b5060e082015181600701908051906020019061093a92919061118c565b506101008201518160080160006101000a81548160ff0219169083151502179055509050507f96beefe7c0c1b00e25286e8b55a743ec392f25ea7c8cb445359df7541168266060005433878688878760405161099c9796959493929190611a48565b60405180910390a160016000808282546109b6919061175a565b925050819055505050505050565b6000600160008381526020019081526020016000209050600073ffffffffffffffffffffffffffffffffffffffff168160020160009054906101000a900473ffffffffffffffffffffffffffffffffffffffff1673ffffffffffffffffffffffffffffffffffffffff161415610a6f576040517f08c379a0000000000000000000000000000000000000000000000000000000008152600401610a6690611afe565b60405180910390fd5b34816004015414610ab5576040517f08c379a0000000000000000000000000000000000000000000000000000000008152600401610aac90611b6a565b60405180910390fd5b4281600301541015610afc576040517f08c379a0000000000000000000000000000000000000000000000000000000008152600401610af390611bd6565b60405180910390fd5b8060050154816006018054905010610b49576040517f08c379a0000000000000000000000000000000000000000000000000000000008152600401610b4090611c42565b60405180910390fd5b60005b81600601805490508160ff161015610c23573373ffffffffffffffffffffffffffffffffffffffff16826006018260ff1681548110610b8e57610b8d611977565b5b9060005260206000200160009054906101000a900473ffffffffffffffffffffffffffffffffffffffff1673ffffffffffffffffffffffffffffffffffffffff161415610c10576040517f08c379a0000000000000000000000000000000000000000000000000000000008152600401610c0790611cae565b60405180910390fd5b8080610c1b906119b3565b915050610b4c565b5080600601339080600181540180825580915050600190039060005260206000200160009091909190916101000a81548173ffffffffffffffffffffffffffffffffffffffff021916908373ffffffffffffffffffffffffffffffffffffffff1602179055507f305579fda99551f5107b32b7465875a3984f12521b5df905ee46fe6efb873f928233604051610cba929190611cce565b60405180910390a15050565b6001602052806000526040600020600091509050806000015490806001018054610cef90611d26565b80601f0160208091040260200160405190810160405280929190818152602001828054610d1b90611d26565b8015610d685780601f10610d3d57610100808354040283529160200191610d68565b820191906000526020600020905b815481529060010190602001808311610d4b57829003601f168201915b5050505050908060020160009054906101000a900473ffffffffffffffffffffffffffffffffffffffff16908060030154908060040154908060050154908060080160009054906101000a900460ff16905087565b60006001600083815260200190815260200160002090503373ffffffffffffffffffffffffffffffffffffffff168160020160009054906101000a900473ffffffffffffffffffffffffffffffffffffffff1673ffffffffffffffffffffffffffffffffffffffff1614610e66576040517f08c379a0000000000000000000000000000000000000000000000000000000008152600401610e5d9061169f565b60405180910390fd5b60005b81600601805490508160ff161015610ee457610ed18383600701846006018460ff1681548110610e9c57610e9b611977565b5b9060005260206000200160009054906101000a900473ffffffffffffffffffffffffffffffffffffffff168560040154610ee9565b8080610edc906119b3565b915050610e69565b505050565b60005b8380549050811015610fb7578273ffffffffffffffffffffffffffffffffffffffff16848281548110610f2257610f21611977565b5b9060005260206000200160009054906101000a900473ffffffffffffffffffffffffffffffffffffffff1673ffffffffffffffffffffffffffffffffffffffff161415610fa4576040517f08c379a0000000000000000000000000000000000000000000000000000000008152600401610f9b90611da4565b60405180910390fd5b8080610faf90611dc4565b915050610eec565b5060008273ffffffffffffffffffffffffffffffffffffffff1682604051610fde906118db565b60006040518083038185875af1925050503d806000811461101b576040519150601f19603f3d011682016040523d82523d6000602084013e611020565b606091505b5050905080611064576040517f08c379a000000000000000000000000000000000000000000000000000000000815260040161105b9061193c565b60405180910390fd5b83839080600181540180825580915050600190039060005260206000200160009091909190916101000a81548173ffffffffffffffffffffffffffffffffffffffff021916908373ffffffffffffffffffffffffffffffffffffffff1602179055507ff51b42fda5553f12aca9bf0984b446bf9883824e148ee9e467eb21f180a05ff385846040516110f7929190611cce565b60405180910390a15050505050565b82805461111290611d26565b90600052602060002090601f016020900481019282611134576000855561117b565b82601f1061114d57805160ff191683800117855561117b565b8280016001018555821561117b579182015b8281111561117a57825182559160200191906001019061115f565b5b5090506111889190611216565b5090565b828054828255906000526020600020908101928215611205579160200282015b828111156112045782518260006101000a81548173ffffffffffffffffffffffffffffffffffffffff021916908373ffffffffffffffffffffffffffffffffffffffff160217905550916020019190600101906111ac565b5b5090506112129190611216565b5090565b5b8082111561122f576000816000905550600101611217565b5090565b600080fd5b600080fd5b6000819050919050565b6112508161123d565b811461125b57600080fd5b50565b60008135905061126d81611247565b92915050565b60006020828403121561128957611288611233565b5b60006112978482850161125e565b91505092915050565b600081519050919050565b600082825260208201905092915050565b6000819050602082019050919050565b600073ffffffffffffffffffffffffffffffffffffffff82169050919050565b60006112f7826112cc565b9050919050565b611307816112ec565b82525050565b600061131983836112fe565b60208301905092915050565b6000602082019050919050565b600061133d826112a0565b61134781856112ab565b9350611352836112bc565b8060005b8381101561138357815161136a888261130d565b975061137583611325565b925050600181019050611356565b5085935050505092915050565b600060208201905081810360008301526113aa8184611332565b905092915050565b6113bb816112ec565b81146113c657600080fd5b50565b6000813590506113d8816113b2565b92915050565b600080604083850312156113f5576113f4611233565b5b60006114038582860161125e565b9250506020611414858286016113c9565b9150509250929050565b600080fd5b600080fd5b600080fd5b60008083601f8401126114435761144261141e565b5b8235905067ffffffffffffffff8111156114605761145f611423565b5b60208301915083600182028301111561147c5761147b611428565b5b9250929050565b60008060008060006080868803121561149f5761149e611233565b5b60006114ad8882890161125e565b95505060206114be8882890161125e565b94505060406114cf8882890161125e565b935050606086013567ffffffffffffffff8111156114f0576114ef611238565b5b6114fc8882890161142d565b92509250509295509295909350565b6115148161123d565b82525050565b600081519050919050565b600082825260208201905092915050565b60005b83811015611554578082015181840152602081019050611539565b83811115611563576000848401525b50505050565b6000601f19601f8301169050919050565b60006115858261151a565b61158f8185611525565b935061159f818560208601611536565b6115a881611569565b840191505092915050565b6115bc816112ec565b82525050565b60008115159050919050565b6115d7816115c2565b82525050565b600060e0820190506115f2600083018a61150b565b8181036020830152611604818961157a565b905061161360408301886115b3565b611620606083018761150b565b61162d608083018661150b565b61163a60a083018561150b565b61164760c08301846115ce565b98975050505050505050565b7f6e6f74206576656e742063726561746f72000000000000000000000000000000600082015250565b6000611689601183611525565b915061169482611653565b602082019050919050565b600060208201905081810360008301526116b88161167c565b9050919050565b7f616c7265616479207061696f7574000000000000000000000000000000000000600082015250565b60006116f5600e83611525565b9150611700826116bf565b602082019050919050565b60006020820190508181036000830152611724816116e8565b9050919050565b7f4e487b7100000000000000000000000000000000000000000000000000000000600052601160045260246000fd5b60006117658261123d565b91506117708361123d565b9250827fffffffffffffffffffffffffffffffffffffffffffffffffffffffffffffffff038211156117a5576117a461172b565b5b828201905092915050565b7f544f4f204541524c590000000000000000000000000000000000000000000000600082015250565b60006117e6600983611525565b91506117f1826117b0565b602082019050919050565b60006020820190508181036000830152611815816117d9565b9050919050565b60006118278261123d565b91506118328361123d565b9250828210156118455761184461172b565b5b828203905092915050565b600061185b8261123d565b91506118668361123d565b9250817fffffffffffffffffffffffffffffffffffffffffffffffffffffffffffffffff048311821515161561189f5761189e61172b565b5b828202905092915050565b600081905092915050565b50565b60006118c56000836118aa565b91506118d0826118b5565b600082019050919050565b60006118e6826118b8565b9150819050919050565b7f4661696c656420746f2073656e64204574686572000000000000000000000000600082015250565b6000611926601483611525565b9150611931826118f0565b602082019050919050565b6000602082019050818103600083015261195581611919565b9050919050565b6000602082019050611971600083018461150b565b92915050565b7f4e487b7100000000000000000000000000000000000000000000000000000000600052603260045260246000fd5b600060ff82169050919050565b60006119be826119a6565b915060ff8214156119d2576119d161172b565b5b600182019050919050565b7f4e487b7100000000000000000000000000000000000000000000000000000000600052604160045260246000fd5b82818337600083830152505050565b6000611a278385611525565b9350611a34838584611a0c565b611a3d83611569565b840190509392505050565b600060c082019050611a5d600083018a61150b565b611a6a60208301896115b3565b611a77604083018861150b565b611a84606083018761150b565b611a91608083018661150b565b81810360a0830152611aa4818486611a1b565b905098975050505050505050565b7f6576656e74206e6f7420637265617465642e0000000000000000000000000000600082015250565b6000611ae8601283611525565b9150611af382611ab2565b602082019050919050565b60006020820190508181036000830152611b1781611adb565b9050919050565b7f6465706f736974206e6f7420656e6f7567682e00000000000000000000000000600082015250565b6000611b54601383611525565b9150611b5f82611b1e565b602082019050919050565b60006020820190508181036000830152611b8381611b47565b9050919050565b7f6576656e7420616c72656164792068617070656e656400000000000000000000600082015250565b6000611bc0601683611525565b9150611bcb82611b8a565b602082019050919050565b60006020820190508181036000830152611bef81611bb3565b9050919050565b7f6576656e74206861732072656163686564206361706163697479000000000000600082015250565b6000611c2c601a83611525565b9150611c3782611bf6565b602082019050919050565b60006020820190508181036000830152611c5b81611c1f565b9050919050565b7f414c524541445920434f4e4649524d4544000000000000000000000000000000600082015250565b6000611c98601183611525565b9150611ca382611c62565b602082019050919050565b60006020820190508181036000830152611cc781611c8b565b9050919050565b6000604082019050611ce3600083018561150b565b611cf060208301846115b3565b9392505050565b7f4e487b7100000000000000000000000000000000000000000000000000000000600052602260045260246000fd5b60006002820490506001821680611d3e57607f821691505b60208210811415611d5257611d51611cf7565b5b50919050565b7f616c726561647920636c61696d65640000000000000000000000000000000000600082015250565b6000611d8e600f83611525565b9150611d9982611d58565b602082019050919050565b60006020820190508181036000830152611dbd81611d81565b9050919050565b6000611dcf8261123d565b91507fffffffffffffffffffffffffffffffffffffffffffffffffffffffffffffffff821415611e0257611e0161172b565b5b60018201905091905056fea2646970667358221220333bbb0ea742cbe943e35ba601e70063b9054260f65f8427551a5bd93e33e2ce64736f6c63430008090033",
  "linkReferences": {},
  "deployedLinkReferences": {}
}