{
  "_format": "hh-sol-artifact-1",
  "contractName": "Staker",
  "sourceName": "contracts/Staker.sol",
  "abi": [
    {
      "inputs": [
        {
          "internalType": "address",
          "name": "exampleExternalContractAddress",
          "type": "address"
        }
      ],
      "stateMutability": "nonpayable",
      "type": "constructor"
    },
    {
      "inputs": [
        {
          "internalType": "address",
          "name": "account",
          "type": "address"
        }
      ],
      "name": "balanceOf",
      "outputs": [
        {
          "internalType": "uint256",
          "name": "",
          "type": "uint256"
        }
      ],
      "stateMutability": "view",
      "type": "function"
    },
    {
      "inputs": [],
      "name": "deadline",
      "outputs": [
        {
          "internalType": "uint256",
          "name": "",
          "type": "uint256"
        }
      ],
      "stateMutability": "view",
      "type": "function"
    },
    {
      "inputs": [],
      "name": "exampleExternalContract",
      "outputs": [
        {
          "internalType": "contract ExampleExternalContract",
          "name": "",
          "type": "address"
        }
      ],
      "stateMutability": "view",
      "type": "function"
    },
    {
      "inputs": [],
      "name": "execute",
      "outputs": [],
      "stateMutability": "nonpayable",
      "type": "function"
    },
    {
      "inputs": [],
      "name": "stake",
      "outputs": [],
      "stateMutability": "payable",
      "type": "function"
    },
    {
      "inputs": [],
      "name": "threshold",
      "outputs": [
        {
          "internalType": "uint256",
          "name": "",
          "type": "uint256"
        }
      ],
      "stateMutability": "view",
      "type": "function"
    },
    {
      "inputs": [],
      "name": "timeLeft",
      "outputs": [
        {
          "internalType": "uint256",
          "name": "",
          "type": "uint256"
        }
      ],
      "stateMutability": "view",
      "type": "function"
    },
    {
      "inputs": [],
      "name": "totalAmount",
      "outputs": [
        {
          "internalType": "uint256",
          "name": "",
          "type": "uint256"
        }
      ],
      "stateMutability": "view",
      "type": "function"
    }
  ],
  "bytecode": "0x6080604052601e4261001191906100c1565b60035534801561002057600080fd5b506040516109703803806109708339818101604052810190610042919061017a565b806000806101000a81548173ffffffffffffffffffffffffffffffffffffffff021916908373ffffffffffffffffffffffffffffffffffffffff160217905550506101a7565b6000819050919050565b7f4e487b7100000000000000000000000000000000000000000000000000000000600052601160045260246000fd5b60006100cc82610088565b91506100d783610088565b9250827fffffffffffffffffffffffffffffffffffffffffffffffffffffffffffffffff0382111561010c5761010b610092565b5b828201905092915050565b600080fd5b600073ffffffffffffffffffffffffffffffffffffffff82169050919050565b60006101478261011c565b9050919050565b6101578161013c565b811461016257600080fd5b50565b6000815190506101748161014e565b92915050565b6000602082840312156101905761018f610117565b5b600061019e84828501610165565b91505092915050565b6107ba806101b66000396000f3fe60806040526004361061007b5760003560e01c806342cde4e81161004e57806342cde4e81461010b578063614619541461013657806370a082311461014d5780639f75f2271461018a5761007b565b80631300a6d1146100805780631a39d8ef146100ab57806329dcb0cf146100d65780633a4b66f114610101575b600080fd5b34801561008c57600080fd5b506100956101b5565b6040516100a29190610451565b60405180910390f35b3480156100b757600080fd5b506100c06101de565b6040516100cd9190610451565b60405180910390f35b3480156100e257600080fd5b506100eb6101e4565b6040516100f89190610451565b60405180910390f35b6101096101ea565b005b34801561011757600080fd5b506101206102a0565b60405161012d9190610451565b60405180910390f35b34801561014257600080fd5b5061014b6102ac565b005b34801561015957600080fd5b50610174600480360381019061016f91906104cf565b6103cb565b6040516101819190610451565b60405180910390f35b34801561019657600080fd5b5061019f610414565b6040516101ac919061055b565b60405180910390f35b60006003544211156101ca57600090506101db565b426003546101d891906105a5565b90505b90565b60025481565b60035481565b60035442111561022f576040517f08c379a000000000000000000000000000000000000000000000000000000000815260040161022690610636565b60405180910390fd5b34600160003373ffffffffffffffffffffffffffffffffffffffff1673ffffffffffffffffffffffffffffffffffffffff168152602001908152602001600020600082825461027e9190610656565b9250508190555034600260008282546102979190610656565b92505081905550565b670de0b6b3a764000081565b6003544210156102f1576040517f08c379a00000000000000000000000000000000000000000000000000000000081526004016102e8906106f8565b60405180910390fd5b670de0b6b3a7640000600254101561033e576040517f08c379a000000000000000000000000000000000000000000000000000000000815260040161033590610764565b60405180910390fd5b60008054906101000a900473ffffffffffffffffffffffffffffffffffffffff1673ffffffffffffffffffffffffffffffffffffffff1663522e11776002546040518263ffffffff1660e01b81526004016000604051808303818588803b1580156103a857600080fd5b505af11580156103bc573d6000803e3d6000fd5b50505050506000600281905550565b6000600160008373ffffffffffffffffffffffffffffffffffffffff1673ffffffffffffffffffffffffffffffffffffffff168152602001908152602001600020549050919050565b60008054906101000a900473ffffffffffffffffffffffffffffffffffffffff1681565b6000819050919050565b61044b81610438565b82525050565b60006020820190506104666000830184610442565b92915050565b600080fd5b600073ffffffffffffffffffffffffffffffffffffffff82169050919050565b600061049c82610471565b9050919050565b6104ac81610491565b81146104b757600080fd5b50565b6000813590506104c9816104a3565b92915050565b6000602082840312156104e5576104e461046c565b5b60006104f3848285016104ba565b91505092915050565b6000819050919050565b600061052161051c61051784610471565b6104fc565b610471565b9050919050565b600061053382610506565b9050919050565b600061054582610528565b9050919050565b6105558161053a565b82525050565b6000602082019050610570600083018461054c565b92915050565b7f4e487b7100000000000000000000000000000000000000000000000000000000600052601160045260246000fd5b60006105b082610438565b91506105bb83610438565b9250828210156105ce576105cd610576565b5b828203905092915050565b600082825260208201905092915050565b7f646561646c696e65207061737365640000000000000000000000000000000000600082015250565b6000610620600f836105d9565b915061062b826105ea565b602082019050919050565b6000602082019050818103600083015261064f81610613565b9050919050565b600061066182610438565b915061066c83610438565b9250827fffffffffffffffffffffffffffffffffffffffffffffffffffffffffffffffff038211156106a1576106a0610576565b5b828201905092915050565b7f646561646c696e65206e6f742070617373656400000000000000000000000000600082015250565b60006106e26013836105d9565b91506106ed826106ac565b602082019050919050565b60006020820190508181036000830152610711816106d5565b9050919050565b7f746872656164686f6c64206e6f74206d65657400000000000000000000000000600082015250565b600061074e6013836105d9565b915061075982610718565b602082019050919050565b6000602082019050818103600083015261077d81610741565b905091905056fea26469706673582212208564717ced9cfe7bd9667d2a5be42e4452f2031df6d6367c5aa1f86fbb5a887964736f6c63430008090033",
  "linkReferences": {},
  "deployedLinkReferences": {}
}