{
    "_format": "hh-sol-artifact-1",
    "contractName": "ETHFaucet",
    "sourceName": "contracts/ETHFaucet.sol",
    "abi": [
        {
            "inputs": [],
            "stateMutability": "payable",
            "type": "constructor"
        },
        {
            "inputs": [],
            "name": "amountAllowed",
            "outputs": [
                {
                    "internalType": "uint256",
                    "name": "",
                    "type": "uint256"
                }
            ],
            "stateMutability": "view",
            "type": "function"
        },
        {
            "inputs": [],
            "name": "requestEther",
            "outputs": [],
            "stateMutability": "nonpayable",
            "type": "function"
        },
        {
            "inputs": [
                {
                    "internalType": "address",
                    "name": "",
                    "type": "address"
                }
            ],
            "name": "requestedAddress",
            "outputs": [
                {
                    "internalType": "bool",
                    "name": "",
                    "type": "bool"
                }
            ],
            "stateMutability": "view",
            "type": "function"
        },
        {
            "stateMutability": "payable",
            "type": "receive"
        }
    ],
    "bytecode": "0x608060405267016345785d8a00006000556104418061001f6000396000f3fe6080604052600436106100385760003560e01c80635e33dba91461004457806361ed4648146100815780639ad2cd14146100985761003f565b3661003f57005b600080fd5b34801561005057600080fd5b5061006b60048036038101906100669190610245565b6100c3565b604051610078919061028d565b60405180910390f35b34801561008d57600080fd5b506100966100e3565b005b3480156100a457600080fd5b506100ad6101dc565b6040516100ba91906102c1565b60405180910390f35b60016020528060005260406000206000915054906101000a900460ff1681565b600054471015610128576040517f08c379a000000000000000000000000000000000000000000000000000000000815260040161011f90610339565b60405180910390fd5b6000803373ffffffffffffffffffffffffffffffffffffffff166000546040516101519061038a565b60006040518083038185875af1925050503d806000811461018e576040519150601f19603f3d011682016040523d82523d6000602084013e610193565b606091505b5091509150816101d8576040517f08c379a00000000000000000000000000000000000000000000000000000000081526004016101cf906103eb565b60405180910390fd5b5050565b60005481565b600080fd5b600073ffffffffffffffffffffffffffffffffffffffff82169050919050565b6000610212826101e7565b9050919050565b61022281610207565b811461022d57600080fd5b50565b60008135905061023f81610219565b92915050565b60006020828403121561025b5761025a6101e2565b5b600061026984828501610230565b91505092915050565b60008115159050919050565b61028781610272565b82525050565b60006020820190506102a2600083018461027e565b92915050565b6000819050919050565b6102bb816102a8565b82525050565b60006020820190506102d660008301846102b2565b92915050565b600082825260208201905092915050565b7f616d6f756e74206e6f7420656e6f756768000000000000000000000000000000600082015250565b60006103236011836102dc565b915061032e826102ed565b602082019050919050565b6000602082019050818103600083015261035281610316565b9050919050565b600081905092915050565b50565b6000610374600083610359565b915061037f82610364565b600082019050919050565b600061039582610367565b9150819050919050565b7f5249503b2072657175657374206661696c6564203a2820000000000000000000600082015250565b60006103d56017836102dc565b91506103e08261039f565b602082019050919050565b60006020820190508181036000830152610404816103c8565b905091905056fea2646970667358221220ffe1435ea57ffeb8398439ff6921b031089e87e0fccd29aee9298b27fb18a08264736f6c63430008090033",
    "linkReferences": {},
    "deployedLinkReferences": {}
}