{
  "_format": "hh-sol-artifact-1",
  "contractName": "ERC721",
  "sourceName": "contracts/ERC721.sol",
  "abi": [
    {
      "inputs": [
        {
          "internalType": "string",
          "name": "_name",
          "type": "string"
        },
        {
          "internalType": "string",
          "name": "_symbol",
          "type": "string"
        }
      ],
      "stateMutability": "nonpayable",
      "type": "constructor"
    },
    {
      "inputs": [
        {
          "internalType": "address",
          "name": "account",
          "type": "address"
        }
      ],
      "name": "balanceOf",
      "outputs": [
        {
          "internalType": "uint256",
          "name": "",
          "type": "uint256"
        }
      ],
      "stateMutability": "view",
      "type": "function"
    },
    {
      "inputs": [
        {
          "internalType": "uint256",
          "name": "tokenId",
          "type": "uint256"
        }
      ],
      "name": "generateInlineSvg",
      "outputs": [
        {
          "internalType": "string",
          "name": "",
          "type": "string"
        }
      ],
      "stateMutability": "pure",
      "type": "function"
    },
    {
      "inputs": [
        {
          "internalType": "uint256",
          "name": "tokenId",
          "type": "uint256"
        }
      ],
      "name": "generateMetadata",
      "outputs": [
        {
          "internalType": "string",
          "name": "",
          "type": "string"
        }
      ],
      "stateMutability": "pure",
      "type": "function"
    },
    {
      "inputs": [
        {
          "internalType": "uint256",
          "name": "tokenId",
          "type": "uint256"
        }
      ],
      "name": "generateSvg",
      "outputs": [
        {
          "internalType": "string",
          "name": "",
          "type": "string"
        }
      ],
      "stateMutability": "pure",
      "type": "function"
    },
    {
      "inputs": [
        {
          "internalType": "uint256",
          "name": "tokenId",
          "type": "uint256"
        }
      ],
      "name": "generateSvgBase64",
      "outputs": [
        {
          "internalType": "string",
          "name": "",
          "type": "string"
        }
      ],
      "stateMutability": "pure",
      "type": "function"
    },
    {
      "inputs": [
        {
          "internalType": "address",
          "name": "to",
          "type": "address"
        }
      ],
      "name": "mintTo",
      "outputs": [],
      "stateMutability": "nonpayable",
      "type": "function"
    },
    {
      "inputs": [],
      "name": "name",
      "outputs": [
        {
          "internalType": "string",
          "name": "",
          "type": "string"
        }
      ],
      "stateMutability": "view",
      "type": "function"
    },
    {
      "inputs": [
        {
          "internalType": "uint256",
          "name": "id",
          "type": "uint256"
        }
      ],
      "name": "ownerOf",
      "outputs": [
        {
          "internalType": "address",
          "name": "",
          "type": "address"
        }
      ],
      "stateMutability": "view",
      "type": "function"
    },
    {
      "inputs": [],
      "name": "symbol",
      "outputs": [
        {
          "internalType": "string",
          "name": "",
          "type": "string"
        }
      ],
      "stateMutability": "view",
      "type": "function"
    },
    {
      "inputs": [
        {
          "internalType": "uint256",
          "name": "tokenId",
          "type": "uint256"
        }
      ],
      "name": "tokenURI",
      "outputs": [
        {
          "internalType": "string",
          "name": "",
          "type": "string"
        }
      ],
      "stateMutability": "pure",
      "type": "function"
    },
    {
      "inputs": [
        {
          "internalType": "address",
          "name": "from",
          "type": "address"
        },
        {
          "internalType": "address",
          "name": "to",
          "type": "address"
        },
        {
          "internalType": "uint256",
          "name": "tokenId",
          "type": "uint256"
        }
      ],
      "name": "transferFrom",
      "outputs": [],
      "stateMutability": "nonpayable",
      "type": "function"
    }
  ],
  "bytecode": "0x60806040523480156200001157600080fd5b5060405162001985380380620019858339818101604052810190620000379190620002be565b81600390805190602001906200004f92919062000071565b5080600490805190602001906200006892919062000071565b505050620003a7565b8280546200007f9062000372565b90600052602060002090601f016020900481019282620000a35760008555620000ef565b82601f10620000be57805160ff1916838001178555620000ef565b82800160010185558215620000ef579182015b82811115620000ee578251825591602001919060010190620000d1565b5b509050620000fe919062000102565b5090565b5b808211156200011d57600081600090555060010162000103565b5090565b6000604051905090565b600080fd5b600080fd5b600080fd5b600080fd5b6000601f19601f8301169050919050565b7f4e487b7100000000000000000000000000000000000000000000000000000000600052604160045260246000fd5b6200018a826200013f565b810181811067ffffffffffffffff82111715620001ac57620001ab62000150565b5b80604052505050565b6000620001c162000121565b9050620001cf82826200017f565b919050565b600067ffffffffffffffff821115620001f257620001f162000150565b5b620001fd826200013f565b9050602081019050919050565b60005b838110156200022a5780820151818401526020810190506200020d565b838111156200023a576000848401525b50505050565b6000620002576200025184620001d4565b620001b5565b9050828152602081018484840111156200027657620002756200013a565b5b620002838482856200020a565b509392505050565b600082601f830112620002a357620002a262000135565b5b8151620002b584826020860162000240565b91505092915050565b60008060408385031215620002d857620002d76200012b565b5b600083015167ffffffffffffffff811115620002f957620002f862000130565b5b62000307858286016200028b565b925050602083015167ffffffffffffffff8111156200032b576200032a62000130565b5b62000339858286016200028b565b9150509250929050565b7f4e487b7100000000000000000000000000000000000000000000000000000000600052602260045260246000fd5b600060028204905060018216806200038b57607f821691505b602082108103620003a157620003a062000343565b5b50919050565b6115ce80620003b76000396000f3fe608060405234801561001057600080fd5b50600436106100a95760003560e01c8063755edd1711610071578063755edd171461017857806395d89b41146101945780639ac70a62146101b2578063bc921dc2146101e2578063c87b56dd14610212578063ebee7b1114610242576100a9565b8063015e1a0b146100ae57806306fdde03146100de57806323b872dd146100fc5780636352211e1461011857806370a0823114610148575b600080fd5b6100c860048036038101906100c39190610b3d565b610272565b6040516100d59190610c03565b60405180910390f35b6100e66102ad565b6040516100f39190610c03565b60405180910390f35b61011660048036038101906101119190610c83565b61033b565b005b610132600480360381019061012d9190610b3d565b610521565b60405161013f9190610ce5565b60405180910390f35b610162600480360381019061015d9190610d00565b6105ae565b60405161016f9190610d3c565b60405180910390f35b610192600480360381019061018d9190610d00565b6105f7565b005b61019c610620565b6040516101a99190610c03565b60405180910390f35b6101cc60048036038101906101c79190610b3d565b6106ae565b6040516101d99190610c03565b60405180910390f35b6101fc60048036038101906101f79190610b3d565b6106e7565b6040516102099190610c03565b60405180910390f35b61022c60048036038101906102279190610b3d565b610718565b6040516102399190610c03565b60405180910390f35b61025c60048036038101906102579190610b3d565b610751565b6040516102699190610c03565b60405180910390f35b606061027d82610782565b61028683610751565b604051602001610297929190610e9d565b6040516020818303038152906040529050919050565b600380546102ba90610f59565b80601f01602080910402602001604051908101604052809291908181526020018280546102e690610f59565b80156103335780601f1061030857610100808354040283529160200191610333565b820191906000526020600020905b81548152906001019060200180831161031657829003601f168201915b505050505081565b8273ffffffffffffffffffffffffffffffffffffffff163373ffffffffffffffffffffffffffffffffffffffff16146103a9576040517f08c379a00000000000000000000000000000000000000000000000000000000081526004016103a090610fd6565b60405180910390fd5b8273ffffffffffffffffffffffffffffffffffffffff166103c982610521565b73ffffffffffffffffffffffffffffffffffffffff161461041f576040517f08c379a000000000000000000000000000000000000000000000000000000000815260040161041690610fd6565b60405180910390fd5b8160008083815260200190815260200160002060006101000a81548173ffffffffffffffffffffffffffffffffffffffff021916908373ffffffffffffffffffffffffffffffffffffffff16021790555060018060008573ffffffffffffffffffffffffffffffffffffffff1673ffffffffffffffffffffffffffffffffffffffff16815260200190815260200160002060008282546104bf9190611025565b9250508190555060018060008473ffffffffffffffffffffffffffffffffffffffff1673ffffffffffffffffffffffffffffffffffffffff16815260200190815260200160002060008282546105159190611059565b92505081905550505050565b600060025482111580156105355750600082115b610574576040517f08c379a000000000000000000000000000000000000000000000000000000000815260040161056b906110fb565b60405180910390fd5b60008083815260200190815260200160002060009054906101000a900473ffffffffffffffffffffffffffffffffffffffff169050919050565b6000600160008373ffffffffffffffffffffffffffffffffffffffff1673ffffffffffffffffffffffffffffffffffffffff168152602001908152602001600020549050919050565b60016002600082825461060a9190611059565b9250508190555061061d600254826108e2565b50565b6004805461062d90610f59565b80601f016020809104026020016040519081016040528092919081815260200182805461065990610f59565b80156106a65780601f1061067b576101008083540402835291602001916106a6565b820191906000526020600020905b81548152906001019060200180831161068957829003601f168201915b505050505081565b60606106e06106bc836106e7565b6040516020016106cc919061111b565b60405160208183030381529060405261098d565b9050919050565b60606106f282610af0565b60405160200161070291906112fe565b6040516020818303038152906040529050919050565b606061072b61072683610272565b61098d565b60405160200161073b9190611355565b6040516020818303038152906040529050919050565b606061075c826106ae565b60405160200161076c91906113a1565b6040516020818303038152906040529050919050565b6060600082036107c9576040518060400160405280600181526020017f300000000000000000000000000000000000000000000000000000000000000081525090506108dd565b600082905060005b600082146107fb5780806107e4906113c7565b915050600a826107f4919061143e565b91506107d1565b60008167ffffffffffffffff8111156108175761081661146f565b5b6040519080825280601f01601f1916602001820160405280156108495781602001600182028036833780820191505090505b5090505b600085146108d6576001826108629190611025565b9150600a85610871919061149e565b603061087d9190611059565b60f81b818381518110610893576108926114cf565b5b60200101907effffffffffffffffffffffffffffffffffffffffffffffffffffffffffffff1916908160001a905350600a856108cf919061143e565b945061084d565b8093505050505b919050565b8060008084815260200190815260200160002060006101000a81548173ffffffffffffffffffffffffffffffffffffffff021916908373ffffffffffffffffffffffffffffffffffffffff16021790555060018060008373ffffffffffffffffffffffffffffffffffffffff1673ffffffffffffffffffffffffffffffffffffffff16815260200190815260200160002060008282546109829190611059565b925050819055505050565b606060008251036109af57604051806020016040528060008152509050610aeb565b600060405180606001604052806040815260200161155960409139905060006003600285516109de9190611059565b6109e8919061143e565b60046109f491906114fe565b67ffffffffffffffff811115610a0d57610a0c61146f565b5b6040519080825280601f01601f191660200182016040528015610a3f5781602001600182028036833780820191505090505b509050600182016020820185865187015b80821015610aab576003820191508151603f8160121c168501518453600184019350603f81600c1c168501518453600184019350603f8160061c168501518453600184019350603f8116850151845360018401935050610a50565b5050600386510660018114610ac75760028114610ada57610ae2565b603d6001830353603d6002830353610ae2565b603d60018303535b50505080925050505b919050565b6060610afb82610782565b9050919050565b600080fd5b6000819050919050565b610b1a81610b07565b8114610b2557600080fd5b50565b600081359050610b3781610b11565b92915050565b600060208284031215610b5357610b52610b02565b5b6000610b6184828501610b28565b91505092915050565b600081519050919050565b600082825260208201905092915050565b60005b83811015610ba4578082015181840152602081019050610b89565b83811115610bb3576000848401525b50505050565b6000601f19601f8301169050919050565b6000610bd582610b6a565b610bdf8185610b75565b9350610bef818560208601610b86565b610bf881610bb9565b840191505092915050565b60006020820190508181036000830152610c1d8184610bca565b905092915050565b600073ffffffffffffffffffffffffffffffffffffffff82169050919050565b6000610c5082610c25565b9050919050565b610c6081610c45565b8114610c6b57600080fd5b50565b600081359050610c7d81610c57565b92915050565b600080600060608486031215610c9c57610c9b610b02565b5b6000610caa86828701610c6e565b9350506020610cbb86828701610c6e565b9250506040610ccc86828701610b28565b9150509250925092565b610cdf81610c45565b82525050565b6000602082019050610cfa6000830184610cd6565b92915050565b600060208284031215610d1657610d15610b02565b5b6000610d2484828501610c6e565b91505092915050565b610d3681610b07565b82525050565b6000602082019050610d516000830184610d2d565b92915050565b7f7b00000000000000000000000000000000000000000000000000000000000000815250565b7f226e616d65223a20224261646765202300000000000000000000000000000000815250565b600081905092915050565b6000610db982610b6a565b610dc38185610da3565b9350610dd3818560208601610b86565b80840191505092915050565b7f222c000000000000000000000000000000000000000000000000000000000000815250565b7f226465736372697074696f6e223a20226f6e636861696e206e6674222c000000815250565b7f22696d616765223a202200000000000000000000000000000000000000000000815250565b7f2200000000000000000000000000000000000000000000000000000000000000815250565b7f7d00000000000000000000000000000000000000000000000000000000000000815250565b6000610ea882610d57565b600182019150610eb782610d7d565b601082019150610ec78285610dae565b9150610ed282610ddf565b600282019150610ee182610e05565b601d82019150610ef082610e2b565b600a82019150610f008284610dae565b9150610f0b82610e51565b600182019150610f1a82610e77565b6001820191508190509392505050565b7f4e487b7100000000000000000000000000000000000000000000000000000000600052602260045260246000fd5b60006002820490506001821680610f7157607f821691505b602082108103610f8457610f83610f2a565b5b50919050565b7f6e6f7420746f6b656e206f776e65720000000000000000000000000000000000600082015250565b6000610fc0600f83610b75565b9150610fcb82610f8a565b602082019050919050565b60006020820190508181036000830152610fef81610fb3565b9050919050565b7f4e487b7100000000000000000000000000000000000000000000000000000000600052601160045260246000fd5b600061103082610b07565b915061103b83610b07565b92508282101561104e5761104d610ff6565b5b828203905092915050565b600061106482610b07565b915061106f83610b07565b9250827fffffffffffffffffffffffffffffffffffffffffffffffffffffffffffffffff038211156110a4576110a3610ff6565b5b828201905092915050565b7f6974656d206964206e6f742070726573656e7400000000000000000000000000600082015250565b60006110e5601383610b75565b91506110f0826110af565b602082019050919050565b60006020820190508181036000830152611114816110d8565b9050919050565b60006111278284610dae565b915081905092915050565b7f3c73766720786d6c6e733d22687474703a2f2f7777772e77332e6f72672f323060008201527f30302f73766722207072657365727665417370656374526174696f3d22784d6960208201527f6e594d696e206d656574222076696577426f783d22302030203335302033353060408201527f223e3c7374796c653e2e62617365207b2066696c6c3a2077686974653b20666f60608201527f6e742d66616d696c793a2073657269663b20666f6e742d73697a653a2031347060808201527f783b207d3c2f7374796c653e3c726563742077696474683d223130302522206860a08201527f65696768743d2231303025222066696c6c3d22626c61636b22202f3e3c74657860c08201527f7420783d223530252220793d223530252220636c6173733d226261736522206460e08201527f6f6d696e616e742d626173656c696e653d226d6964646c652220746578742d616101008201527f6e63686f723d226d6964646c65223e232000000000000000000000000000000061012082015250565b60006112c161013183610da3565b91506112cc82611132565b61013182019050919050565b7f3c2f746578743e3c2f7376673e00000000000000000000000000000000000000815250565b6000611309826112b3565b91506113158284610dae565b9150611320826112d8565b600d8201915081905092915050565b7f646174613a6170706c69636174696f6e2f6a736f6e3b6261736536342c000000815250565b60006113608261132f565b601d820191506113708284610dae565b915081905092915050565b7f646174613a696d6167652f7376672b786d6c3b6261736536342c000000000000815250565b60006113ac8261137b565b601a820191506113bc8284610dae565b915081905092915050565b60006113d282610b07565b91507fffffffffffffffffffffffffffffffffffffffffffffffffffffffffffffffff820361140457611403610ff6565b5b600182019050919050565b7f4e487b7100000000000000000000000000000000000000000000000000000000600052601260045260246000fd5b600061144982610b07565b915061145483610b07565b9250826114645761146361140f565b5b828204905092915050565b7f4e487b7100000000000000000000000000000000000000000000000000000000600052604160045260246000fd5b60006114a982610b07565b91506114b483610b07565b9250826114c4576114c361140f565b5b828206905092915050565b7f4e487b7100000000000000000000000000000000000000000000000000000000600052603260045260246000fd5b600061150982610b07565b915061151483610b07565b9250817fffffffffffffffffffffffffffffffffffffffffffffffffffffffffffffffff048311821515161561154d5761154c610ff6565b5b82820290509291505056fe4142434445464748494a4b4c4d4e4f505152535455565758595a6162636465666768696a6b6c6d6e6f707172737475767778797a303132333435363738392b2fa2646970667358221220f9b34872a99e4f2fa46767ae6ee404f1ffa2217addda476cee2f60d5df80a7d264736f6c634300080e0033",
  "linkReferences": {},
  "deployedLinkReferences": {}
}