{
  "_format": "hh-sol-artifact-1",
  "contractName": "SimpleVoting",
  "sourceName": "contracts/SimpleVoting.sol",
  "abi": [
    {
      "inputs": [],
      "stateMutability": "nonpayable",
      "type": "constructor"
    },
    {
      "anonymous": false,
      "inputs": [
        {
          "indexed": false,
          "internalType": "address",
          "name": "voterAddress",
          "type": "address"
        }
      ],
      "name": "VoterRegistered",
      "type": "event"
    },
    {
      "inputs": [],
      "name": "administrator",
      "outputs": [
        {
          "internalType": "address",
          "name": "",
          "type": "address"
        }
      ],
      "stateMutability": "view",
      "type": "function"
    },
    {
      "inputs": [],
      "name": "endProposalsRegistration",
      "outputs": [],
      "stateMutability": "nonpayable",
      "type": "function"
    },
    {
      "inputs": [],
      "name": "endVotingSession",
      "outputs": [],
      "stateMutability": "nonpayable",
      "type": "function"
    },
    {
      "inputs": [
        {
          "internalType": "uint256",
          "name": "id",
          "type": "uint256"
        }
      ],
      "name": "getProposalById",
      "outputs": [
        {
          "components": [
            {
              "internalType": "string",
              "name": "description",
              "type": "string"
            },
            {
              "internalType": "uint256",
              "name": "votingCount",
              "type": "uint256"
            }
          ],
          "internalType": "struct SimpleVoting.Proposal",
          "name": "",
          "type": "tuple"
        }
      ],
      "stateMutability": "view",
      "type": "function"
    },
    {
      "inputs": [],
      "name": "getProposals",
      "outputs": [
        {
          "components": [
            {
              "internalType": "string",
              "name": "description",
              "type": "string"
            },
            {
              "internalType": "uint256",
              "name": "votingCount",
              "type": "uint256"
            }
          ],
          "internalType": "struct SimpleVoting.Proposal[]",
          "name": "",
          "type": "tuple[]"
        }
      ],
      "stateMutability": "view",
      "type": "function"
    },
    {
      "inputs": [],
      "name": "getWinningProposalId",
      "outputs": [
        {
          "internalType": "uint256",
          "name": "",
          "type": "uint256"
        }
      ],
      "stateMutability": "view",
      "type": "function"
    },
    {
      "inputs": [],
      "name": "isAdmin",
      "outputs": [
        {
          "internalType": "bool",
          "name": "",
          "type": "bool"
        }
      ],
      "stateMutability": "view",
      "type": "function"
    },
    {
      "inputs": [],
      "name": "isRegisteredVoter",
      "outputs": [
        {
          "internalType": "bool",
          "name": "",
          "type": "bool"
        }
      ],
      "stateMutability": "view",
      "type": "function"
    },
    {
      "inputs": [
        {
          "internalType": "string",
          "name": "description",
          "type": "string"
        }
      ],
      "name": "registerProposal",
      "outputs": [],
      "stateMutability": "nonpayable",
      "type": "function"
    },
    {
      "inputs": [
        {
          "internalType": "address[]",
          "name": "_voterAddresses",
          "type": "address[]"
        }
      ],
      "name": "registerVoters",
      "outputs": [],
      "stateMutability": "nonpayable",
      "type": "function"
    },
    {
      "inputs": [],
      "name": "startProposalsRegistration",
      "outputs": [],
      "stateMutability": "nonpayable",
      "type": "function"
    },
    {
      "inputs": [],
      "name": "startVotingSession",
      "outputs": [],
      "stateMutability": "nonpayable",
      "type": "function"
    },
    {
      "inputs": [],
      "name": "tallyVotes",
      "outputs": [],
      "stateMutability": "nonpayable",
      "type": "function"
    },
    {
      "inputs": [
        {
          "internalType": "uint256",
          "name": "proposalId",
          "type": "uint256"
        }
      ],
      "name": "vote",
      "outputs": [],
      "stateMutability": "nonpayable",
      "type": "function"
    },
    {
      "inputs": [],
      "name": "workflowStatus",
      "outputs": [
        {
          "internalType": "enum SimpleVoting.WorkflowStatus",
          "name": "",
          "type": "uint8"
        }
      ],
      "stateMutability": "view",
      "type": "function"
    }
  ],
  "bytecode": "0x608060405234801561001057600080fd5b50336000806101000a81548173ffffffffffffffffffffffffffffffffffffffff021916908373ffffffffffffffffffffffffffffffffffffffff16021790555060008060146101000a81548160ff0219169083600581111561007657610075610080565b5b02179055506100af565b7f4e487b7100000000000000000000000000000000000000000000000000000000600052602160045260246000fd5b611cf1806100be6000396000f3fe608060405234801561001057600080fd5b50600436106100f55760003560e01c8063a1edffa211610097578063e09b8c7911610066578063e09b8c7914610214578063e81e977b1461021e578063ee74c6781461023c578063f53d0a8e14610246576100f5565b8063a1edffa2146101b2578063a7bfab16146101d0578063b6db75a0146101da578063d55ec9c1146101f8576100f5565b80633656de21116100d35780633656de2114610150578063378a21781461018057806362564c481461018a5780636c297445146101a8576100f5565b80630121b93f146100fa5780631684eb41146101165780632f95355b14610134575b600080fd5b610114600480360381019061010f919061126f565b610264565b005b61011e61046b565b60405161012b91906112b7565b60405180910390f35b61014e60048036038101906101499190611337565b6104c2565b005b61016a6004803603810190610165919061126f565b61067e565b6040516101779190611469565b60405180910390f35b610188610756565b005b6101926108f5565b60405161019f919061158a565b60405180910390f35b6101b06109f0565b005b6101ba610b21565b6040516101c79190611623565b60405180910390f35b6101d8610b34565b005b6101e2610c65565b6040516101ef91906112b7565b60405180910390f35b610212600480360381019061020d9190611694565b610cbb565b005b61021c610ee2565b005b610226611013565b60405161023391906116f0565b60405180910390f35b61024461101d565b005b61024e61114e565b60405161025b919061174c565b60405180910390f35b6000600160003373ffffffffffffffffffffffffffffffffffffffff1673ffffffffffffffffffffffffffffffffffffffff16815260200190815260200160002090508060000160009054906101000a900460ff166102f8576040517f08c379a00000000000000000000000000000000000000000000000000000000081526004016102ef906117c4565b60405180910390fd5b600060149054906101000a900460ff16600581111561031a576103196115ac565b5b6001600581111561032e5761032d6115ac565b5b1461036e576040517f08c379a00000000000000000000000000000000000000000000000000000000081526004016103659061180a565b60405180910390fd5b6000600160003373ffffffffffffffffffffffffffffffffffffffff1673ffffffffffffffffffffffffffffffffffffffff16815260200190815260200160002090508060000160019054906101000a900460ff1615610403576040517f08c379a00000000000000000000000000000000000000000000000000000000081526004016103fa90611876565b60405180910390fd5b60018160000160016101000a81548160ff02191690831515021790555082816001018190555060016002848154811061043f5761043e611896565b5b9060005260206000209060020201600101600082825461045f91906118f4565b92505081905550505050565b6000600160003373ffffffffffffffffffffffffffffffffffffffff1673ffffffffffffffffffffffffffffffffffffffff16815260200190815260200160002060000160009054906101000a900460ff16905090565b60008054906101000a900473ffffffffffffffffffffffffffffffffffffffff1673ffffffffffffffffffffffffffffffffffffffff163373ffffffffffffffffffffffffffffffffffffffff1614610550576040517f08c379a000000000000000000000000000000000000000000000000000000000815260040161054790611996565b60405180910390fd5b600060149054906101000a900460ff166005811115610572576105716115ac565b5b60006005811115610586576105856115ac565b5b146105c6576040517f08c379a00000000000000000000000000000000000000000000000000000000081526004016105bd9061180a565b60405180910390fd5b6000604051806040016040528084848080601f016020809104026020016040519081016040528093929190818152602001838380828437600081840152601f19601f820116905080830192505050505050508152602001600081525090506002819080600181540180825580915050600190039060005260206000209060020201600090919091909150600082015181600001908051906020019061066c929190611172565b50602082015181600101555050505050565b6106866111f8565b6002828154811061069a57610699611896565b5b90600052602060002090600202016040518060400160405290816000820180546106c3906119e5565b80601f01602080910402602001604051908101604052809291908181526020018280546106ef906119e5565b801561073c5780601f106107115761010080835404028352916020019161073c565b820191906000526020600020905b81548152906001019060200180831161071f57829003601f168201915b505050505081526020016001820154815250509050919050565b60008054906101000a900473ffffffffffffffffffffffffffffffffffffffff1673ffffffffffffffffffffffffffffffffffffffff163373ffffffffffffffffffffffffffffffffffffffff16146107e4576040517f08c379a00000000000000000000000000000000000000000000000000000000081526004016107db90611996565b60405180910390fd5b600460058111156107f8576107f76115ac565b5b600060149054906101000a900460ff16600581111561081a576108196115ac565b5b1461085a576040517f08c379a000000000000000000000000000000000000000000000000000000000815260040161085190611aaf565b60405180910390fd5b60008060005b6002805490508110156108be5760006002828154811061088357610882611896565b5b9060005260206000209060020201905080600101548410156108aa57806001015493508192505b5080806108b690611acf565b915050610860565b50806003819055506005600060146101000a81548160ff021916908360058111156108ec576108eb6115ac565b5b02179055505050565b60606002805480602002602001604051908101604052809291908181526020016000905b828210156109e7578382906000526020600020906002020160405180604001604052908160008201805461094c906119e5565b80601f0160208091040260200160405190810160405280929190818152602001828054610978906119e5565b80156109c55780601f1061099a576101008083540402835291602001916109c5565b820191906000526020600020905b8154815290600101906020018083116109a857829003601f168201915b5050505050815260200160018201548152505081526020019060010190610919565b50505050905090565b60008054906101000a900473ffffffffffffffffffffffffffffffffffffffff1673ffffffffffffffffffffffffffffffffffffffff163373ffffffffffffffffffffffffffffffffffffffff1614610a7e576040517f08c379a0000000000000000000000000000000000000000000000000000000008152600401610a7590611996565b60405180910390fd5b600060149054906101000a900460ff166005811115610aa057610a9f6115ac565b5b60016005811115610ab457610ab36115ac565b5b14610af4576040517f08c379a0000000000000000000000000000000000000000000000000000000008152600401610aeb9061180a565b60405180910390fd5b6002600060146101000a81548160ff02191690836005811115610b1a57610b196115ac565b5b0217905550565b600060149054906101000a900460ff1681565b60008054906101000a900473ffffffffffffffffffffffffffffffffffffffff1673ffffffffffffffffffffffffffffffffffffffff163373ffffffffffffffffffffffffffffffffffffffff1614610bc2576040517f08c379a0000000000000000000000000000000000000000000000000000000008152600401610bb990611996565b60405180910390fd5b60036005811115610bd657610bd56115ac565b5b600060149054906101000a900460ff166005811115610bf857610bf76115ac565b5b14610c38576040517f08c379a0000000000000000000000000000000000000000000000000000000008152600401610c2f90611b8a565b60405180910390fd5b6004600060146101000a81548160ff02191690836005811115610c5e57610c5d6115ac565b5b0217905550565b60003373ffffffffffffffffffffffffffffffffffffffff1660008054906101000a900473ffffffffffffffffffffffffffffffffffffffff1673ffffffffffffffffffffffffffffffffffffffff1614905090565b60008054906101000a900473ffffffffffffffffffffffffffffffffffffffff1673ffffffffffffffffffffffffffffffffffffffff163373ffffffffffffffffffffffffffffffffffffffff1614610d49576040517f08c379a0000000000000000000000000000000000000000000000000000000008152600401610d4090611996565b60405180910390fd5b600060149054906101000a900460ff166005811115610d6b57610d6a6115ac565b5b60006005811115610d7f57610d7e6115ac565b5b14610dbf576040517f08c379a0000000000000000000000000000000000000000000000000000000008152600401610db69061180a565b60405180910390fd5b60005b82829050811015610edd57600060016000858585818110610de657610de5611896565b5b9050602002016020810190610dfb9190611bd6565b73ffffffffffffffffffffffffffffffffffffffff1673ffffffffffffffffffffffffffffffffffffffff16815260200190815260200160002090508060000160009054906101000a900460ff16610ec95760018160000160006101000a81548160ff0219169083151502179055507fb6be2187d059cc2a55fe29e0e503b566e1e0f8c8780096e185429350acffd3dd848484818110610e9e57610e9d611896565b5b9050602002016020810190610eb39190611bd6565b604051610ec0919061174c565b60405180910390a15b508080610ed590611acf565b915050610dc2565b505050565b60008054906101000a900473ffffffffffffffffffffffffffffffffffffffff1673ffffffffffffffffffffffffffffffffffffffff163373ffffffffffffffffffffffffffffffffffffffff1614610f70576040517f08c379a0000000000000000000000000000000000000000000000000000000008152600401610f6790611996565b60405180910390fd5b600060149054906101000a900460ff166005811115610f9257610f916115ac565b5b60006005811115610fa657610fa56115ac565b5b14610fe6576040517f08c379a0000000000000000000000000000000000000000000000000000000008152600401610fdd9061180a565b60405180910390fd5b6001600060146101000a81548160ff0219169083600581111561100c5761100b6115ac565b5b0217905550565b6000600354905090565b60008054906101000a900473ffffffffffffffffffffffffffffffffffffffff1673ffffffffffffffffffffffffffffffffffffffff163373ffffffffffffffffffffffffffffffffffffffff16146110ab576040517f08c379a00000000000000000000000000000000000000000000000000000000081526004016110a290611996565b60405180910390fd5b600260058111156110bf576110be6115ac565b5b600060149054906101000a900460ff1660058111156110e1576110e06115ac565b5b14611121576040517f08c379a000000000000000000000000000000000000000000000000000000000815260040161111890611c9b565b60405180910390fd5b6003600060146101000a81548160ff02191690836005811115611147576111466115ac565b5b0217905550565b60008054906101000a900473ffffffffffffffffffffffffffffffffffffffff1681565b82805461117e906119e5565b90600052602060002090601f0160209004810192826111a057600085556111e7565b82601f106111b957805160ff19168380011785556111e7565b828001600101855582156111e7579182015b828111156111e65782518255916020019190600101906111cb565b5b5090506111f49190611212565b5090565b604051806040016040528060608152602001600081525090565b5b8082111561122b576000816000905550600101611213565b5090565b600080fd5b600080fd5b6000819050919050565b61124c81611239565b811461125757600080fd5b50565b60008135905061126981611243565b92915050565b6000602082840312156112855761128461122f565b5b60006112938482850161125a565b91505092915050565b60008115159050919050565b6112b18161129c565b82525050565b60006020820190506112cc60008301846112a8565b92915050565b600080fd5b600080fd5b600080fd5b60008083601f8401126112f7576112f66112d2565b5b8235905067ffffffffffffffff811115611314576113136112d7565b5b6020830191508360018202830111156113305761132f6112dc565b5b9250929050565b6000806020838503121561134e5761134d61122f565b5b600083013567ffffffffffffffff81111561136c5761136b611234565b5b611378858286016112e1565b92509250509250929050565b600081519050919050565b600082825260208201905092915050565b60005b838110156113be5780820151818401526020810190506113a3565b838111156113cd576000848401525b50505050565b6000601f19601f8301169050919050565b60006113ef82611384565b6113f9818561138f565b93506114098185602086016113a0565b611412816113d3565b840191505092915050565b61142681611239565b82525050565b6000604083016000830151848203600086015261144982826113e4565b915050602083015161145e602086018261141d565b508091505092915050565b60006020820190508181036000830152611483818461142c565b905092915050565b600081519050919050565b600082825260208201905092915050565b6000819050602082019050919050565b600060408301600083015184820360008601526114d482826113e4565b91505060208301516114e9602086018261141d565b508091505092915050565b600061150083836114b7565b905092915050565b6000602082019050919050565b60006115208261148b565b61152a8185611496565b93508360208202850161153c856114a7565b8060005b85811015611578578484038952815161155985826114f4565b945061156483611508565b925060208a01995050600181019050611540565b50829750879550505050505092915050565b600060208201905081810360008301526115a48184611515565b905092915050565b7f4e487b7100000000000000000000000000000000000000000000000000000000600052602160045260246000fd5b600681106115ec576115eb6115ac565b5b50565b60008190506115fd826115db565b919050565b600061160d826115ef565b9050919050565b61161d81611602565b82525050565b60006020820190506116386000830184611614565b92915050565b60008083601f840112611654576116536112d2565b5b8235905067ffffffffffffffff811115611671576116706112d7565b5b60208301915083602082028301111561168d5761168c6112dc565b5b9250929050565b600080602083850312156116ab576116aa61122f565b5b600083013567ffffffffffffffff8111156116c9576116c8611234565b5b6116d58582860161163e565b92509250509250929050565b6116ea81611239565b82525050565b600060208201905061170560008301846116e1565b92915050565b600073ffffffffffffffffffffffffffffffffffffffff82169050919050565b60006117368261170b565b9050919050565b6117468161172b565b82525050565b6000602082019050611761600083018461173d565b92915050565b600082825260208201905092915050565b7f766f746572206d75737420626520726567697374657265642100000000000000600082015250565b60006117ae601983611767565b91506117b982611778565b602082019050919050565b600060208201905081810360008301526117dd816117a1565b9050919050565b50565b60006117f4600083611767565b91506117ff826117e4565b600082019050919050565b60006020820190508181036000830152611823816117e7565b9050919050565b7f68617320766f7465642100000000000000000000000000000000000000000000600082015250565b6000611860600a83611767565b915061186b8261182a565b602082019050919050565b6000602082019050818103600083015261188f81611853565b9050919050565b7f4e487b7100000000000000000000000000000000000000000000000000000000600052603260045260246000fd5b7f4e487b7100000000000000000000000000000000000000000000000000000000600052601160045260246000fd5b60006118ff82611239565b915061190a83611239565b9250827fffffffffffffffffffffffffffffffffffffffffffffffffffffffffffffffff0382111561193f5761193e6118c5565b5b828201905092915050565b7f6e6f742061646d696e2100000000000000000000000000000000000000000000600082015250565b6000611980600a83611767565b915061198b8261194a565b602082019050919050565b600060208201905081810360008301526119af81611973565b9050919050565b7f4e487b7100000000000000000000000000000000000000000000000000000000600052602260045260246000fd5b600060028204905060018216806119fd57607f821691505b60208210811415611a1157611a106119b6565b5b50919050565b7f746869732066756e6374696f6e2063616e2062652063616c6c6564206f6e6c7960008201527f2061667465722074686520766f74696e672073657373696f6e2068617320656e60208201527f6465640000000000000000000000000000000000000000000000000000000000604082015250565b6000611a99604383611767565b9150611aa482611a17565b606082019050919050565b60006020820190508181036000830152611ac881611a8c565b9050919050565b6000611ada82611239565b91507fffffffffffffffffffffffffffffffffffffffffffffffffffffffffffffffff821415611b0d57611b0c6118c5565b5b600182019050919050565b7f746869732066756e6374696f6e2063616e2062652063616c6c6564206f6e6c7960008201527f20647572696e672074686520766f74696e672073657373696f6e000000000000602082015250565b6000611b74603a83611767565b9150611b7f82611b18565b604082019050919050565b60006020820190508181036000830152611ba381611b67565b9050919050565b611bb38161172b565b8114611bbe57600080fd5b50565b600081359050611bd081611baa565b92915050565b600060208284031215611bec57611beb61122f565b5b6000611bfa84828501611bc1565b91505092915050565b7f746869732066756e6374696f6e2063616e2062652063616c6c6564206f6e6c7960008201527f2061667465722070726f706f73616c7320726567697374726174696f6e20686160208201527f7320656e64656400000000000000000000000000000000000000000000000000604082015250565b6000611c85604783611767565b9150611c9082611c03565b606082019050919050565b60006020820190508181036000830152611cb481611c78565b905091905056fea26469706673582212206843aba2afc635df1b6ba952c0081e9fd558fa82647a37746c2ca66a2fd7e31064736f6c63430008090033",
  "linkReferences": {},
  "deployedLinkReferences": {}
}