{
  "_format": "hh-sol-artifact-1",
  "contractName": "MyToken",
  "sourceName": "contracts/MyToken.sol",
  "abi": [
    {
      "inputs": [],
      "stateMutability": "nonpayable",
      "type": "constructor"
    },
    {
      "inputs": [
        {
          "internalType": "address",
          "name": "target",
          "type": "address"
        }
      ],
      "name": "balanceOf",
      "outputs": [
        {
          "internalType": "uint256",
          "name": "amount",
          "type": "uint256"
        }
      ],
      "stateMutability": "view",
      "type": "function"
    },
    {
      "inputs": [
        {
          "internalType": "address",
          "name": "to",
          "type": "address"
        },
        {
          "internalType": "uint256",
          "name": "amount",
          "type": "uint256"
        }
      ],
      "name": "mint",
      "outputs": [],
      "stateMutability": "nonpayable",
      "type": "function"
    },
    {
      "inputs": [],
      "name": "name",
      "outputs": [
        {
          "internalType": "string",
          "name": "",
          "type": "string"
        }
      ],
      "stateMutability": "view",
      "type": "function"
    },
    {
      "inputs": [],
      "name": "owner",
      "outputs": [
        {
          "internalType": "address",
          "name": "",
          "type": "address"
        }
      ],
      "stateMutability": "view",
      "type": "function"
    },
    {
      "inputs": [],
      "name": "symbol",
      "outputs": [
        {
          "internalType": "string",
          "name": "",
          "type": "string"
        }
      ],
      "stateMutability": "view",
      "type": "function"
    },
    {
      "inputs": [],
      "name": "totalSupply",
      "outputs": [
        {
          "internalType": "uint256",
          "name": "",
          "type": "uint256"
        }
      ],
      "stateMutability": "view",
      "type": "function"
    },
    {
      "inputs": [
        {
          "internalType": "address",
          "name": "to",
          "type": "address"
        },
        {
          "internalType": "uint256",
          "name": "amount",
          "type": "uint256"
        }
      ],
      "name": "transfer",
      "outputs": [],
      "stateMutability": "nonpayable",
      "type": "function"
    }
  ],
  "bytecode": "0x60806040526040518060400160405280600281526020017f4d540000000000000000000000000000000000000000000000000000000000008152506000908051906020019061004f9291906100ef565b506040518060400160405280600881526020017f4d7920546f6b656e0000000000000000000000000000000000000000000000008152506001908051906020019061009b9291906100ef565b503480156100a857600080fd5b5033600260006101000a81548173ffffffffffffffffffffffffffffffffffffffff021916908373ffffffffffffffffffffffffffffffffffffffff1602179055506101f3565b8280546100fb906101c1565b90600052602060002090601f01602090048101928261011d5760008555610164565b82601f1061013657805160ff1916838001178555610164565b82800160010185558215610164579182015b82811115610163578251825591602001919060010190610148565b5b5090506101719190610175565b5090565b5b8082111561018e576000816000905550600101610176565b5090565b7f4e487b7100000000000000000000000000000000000000000000000000000000600052602260045260246000fd5b600060028204905060018216806101d957607f821691505b602082108114156101ed576101ec610192565b5b50919050565b610a09806102026000396000f3fe608060405234801561001057600080fd5b506004361061007d5760003560e01c806370a082311161005b57806370a08231146100da5780638da5cb5b1461010a57806395d89b4114610128578063a9059cbb146101465761007d565b806306fdde031461008257806318160ddd146100a057806340c10f19146100be575b600080fd5b61008a610162565b6040516100979190610665565b60405180910390f35b6100a86101f0565b6040516100b591906106a0565b60405180910390f35b6100d860048036038101906100d3919061074a565b6101f6565b005b6100f460048036038101906100ef919061078a565b610294565b60405161010191906106a0565b60405180910390f35b6101126102dd565b60405161011f91906107c6565b60405180910390f35b610130610303565b60405161013d9190610665565b60405180910390f35b610160600480360381019061015b919061074a565b610391565b005b6001805461016f90610810565b80601f016020809104026020016040519081016040528092919081815260200182805461019b90610810565b80156101e85780601f106101bd576101008083540402835291602001916101e8565b820191906000526020600020905b8154815290600101906020018083116101cb57829003601f168201915b505050505081565b60045481565b600260009054906101000a900473ffffffffffffffffffffffffffffffffffffffff1673ffffffffffffffffffffffffffffffffffffffff163373ffffffffffffffffffffffffffffffffffffffff1614610286576040517f08c379a000000000000000000000000000000000000000000000000000000000815260040161027d9061088e565b60405180910390fd5b61029082826104c9565b5050565b6000600360008373ffffffffffffffffffffffffffffffffffffffff1673ffffffffffffffffffffffffffffffffffffffff168152602001908152602001600020549050919050565b600260009054906101000a900473ffffffffffffffffffffffffffffffffffffffff1681565b6000805461031090610810565b80601f016020809104026020016040519081016040528092919081815260200182805461033c90610810565b80156103895780601f1061035e57610100808354040283529160200191610389565b820191906000526020600020905b81548152906001019060200180831161036c57829003601f168201915b505050505081565b600033905081600360008373ffffffffffffffffffffffffffffffffffffffff1673ffffffffffffffffffffffffffffffffffffffff168152602001908152602001600020541015610418576040517f08c379a000000000000000000000000000000000000000000000000000000000815260040161040f906108fa565b60405180910390fd5b81600360008573ffffffffffffffffffffffffffffffffffffffff1673ffffffffffffffffffffffffffffffffffffffff16815260200190815260200160002060008282546104679190610949565b9250508190555081600360008373ffffffffffffffffffffffffffffffffffffffff1673ffffffffffffffffffffffffffffffffffffffff16815260200190815260200160002060008282546104bd919061099f565b92505081905550505050565b600260009054906101000a900473ffffffffffffffffffffffffffffffffffffffff1673ffffffffffffffffffffffffffffffffffffffff163373ffffffffffffffffffffffffffffffffffffffff1614610559576040517f08c379a00000000000000000000000000000000000000000000000000000000081526004016105509061088e565b60405180910390fd5b80600360008473ffffffffffffffffffffffffffffffffffffffff1673ffffffffffffffffffffffffffffffffffffffff16815260200190815260200160002060008282546105a89190610949565b9250508190555080600460008282546105c19190610949565b925050819055505050565b600081519050919050565b600082825260208201905092915050565b60005b838110156106065780820151818401526020810190506105eb565b83811115610615576000848401525b50505050565b6000601f19601f8301169050919050565b6000610637826105cc565b61064181856105d7565b93506106518185602086016105e8565b61065a8161061b565b840191505092915050565b6000602082019050818103600083015261067f818461062c565b905092915050565b6000819050919050565b61069a81610687565b82525050565b60006020820190506106b56000830184610691565b92915050565b600080fd5b600073ffffffffffffffffffffffffffffffffffffffff82169050919050565b60006106eb826106c0565b9050919050565b6106fb816106e0565b811461070657600080fd5b50565b600081359050610718816106f2565b92915050565b61072781610687565b811461073257600080fd5b50565b6000813590506107448161071e565b92915050565b60008060408385031215610761576107606106bb565b5b600061076f85828601610709565b925050602061078085828601610735565b9150509250929050565b6000602082840312156107a05761079f6106bb565b5b60006107ae84828501610709565b91505092915050565b6107c0816106e0565b82525050565b60006020820190506107db60008301846107b7565b92915050565b7f4e487b7100000000000000000000000000000000000000000000000000000000600052602260045260246000fd5b6000600282049050600182168061082857607f821691505b6020821081141561083c5761083b6107e1565b5b50919050565b7f6f6e6c7920616c6c6f77206f776e657200000000000000000000000000000000600082015250565b60006108786010836105d7565b915061088382610842565b602082019050919050565b600060208201905081810360008301526108a78161086b565b9050919050565b7f4e6f7420656e6f75676800000000000000000000000000000000000000000000600082015250565b60006108e4600a836105d7565b91506108ef826108ae565b602082019050919050565b60006020820190508181036000830152610913816108d7565b9050919050565b7f4e487b7100000000000000000000000000000000000000000000000000000000600052601160045260246000fd5b600061095482610687565b915061095f83610687565b9250827fffffffffffffffffffffffffffffffffffffffffffffffffffffffffffffffff038211156109945761099361091a565b5b828201905092915050565b60006109aa82610687565b91506109b583610687565b9250828210156109c8576109c761091a565b5b82820390509291505056fea2646970667358221220302474a48dc90178166c16e5d0b1acf56899fa60415e54dcd7a4d1d3a62a8afc64736f6c63430008090033",
  "linkReferences": {},
  "deployedLinkReferences": {}
}